:020000040800F2
:10000000600600206D0100087501000877010008F6
:10001000790100087B0100087D0100080000000054
:100020000000000000000000000000007F01000848
:100030008101000800000000830100080903000896
:100040008701000887010008870100088701000870
:100050008701000887010008870100088701000860
:100060008701000887010008870100088701000850
:100070008701000887010008870100088701000840
:100080008701000887010008870100088701000830
:100090008701000887010008870100088701000820
:1000A0008701000887010008870100088701000810
:1000B0008701000887010008870100088701000800
:1000C00087010008870100088701000887010008F0
:1000D00087010008870100088701000887010008E0
:1000E00087010008870100088701000800F002F876
:1000F00000F02CF80AA090E8000C82448344AAF196
:100100000107DA4501D100F021F8AFF2090EBAE893
:100110000F0013F0010F18BFFB1A43F0010318473B
:10012000E4020000F4020000002300240025002661
:10013000103A28BF78C1FBD8520728BF30C148BF4A
:100140000B6070471FB51FBD10B510BD00F031F832
:100150001146FFF7F7FF00F011F900F04FF803B474
:10016000FFF7F2FF03BC00F057F800000948804792
:1001700009480047FEE7FEE7FEE7FEE7FEE7FEE789
:10018000FEE7FEE7FEE7FEE704480549054A064BA1
:10019000704700001D030008ED000008600000200B
:1001A0006006002060020020600200207047704757
:1001B0007047754600F02CF8AE4605006946534678
:1001C00020F00700854618B020B5FFF7DDFFBDE839
:1001D00020404FF000064FF000074FF000084FF0AE
:1001E000000B21F00701AC46ACE8C009ACE8C0093F
:1001F000ACE8C009ACE8C0098D46704710B50446AC
:10020000AFF300802046BDE81040FFF7A8BF000014
:10021000004870470000002001491820ABBEFEE7EF
:1002200026000200704710B500F002F810BD000073
:100230000CB50020019000903148006840F48030F7
:100240002F49086000BF2E48006800F4003000907D
:100250000198401C0190009818B90198B0F5A06F62
:10026000F1D12748006800F4003010B1012000905F
:1002700001E000200090009801283FD1214800684B
:1002800040F010001F4908600846006820F0030095
:1002900008600846006808601948406818494860C6
:1002A000084640684860084640684860084640681C
:1002B00020F47C1048600846406840F4981048607C
:1002C0000846006840F08070086000BF0C48006875
:1002D00000F000700028F9D00948406820F00300C1
:1002E000074948600846406840F00200486000BF87
:1002F0000348406800F00C000828F9D10CBD00004C
:1003000000100240002002400348006880F4805042
:1003100001490860704700000C0C014010B51348FB
:10032000006840F001001149086008464068104923
:1003300008400E494860084600680E4908400B49CD
:1003400008600846006820F480200860084640687D
:1003500020F4FE0048604FF41F008860FFF763FF41
:100360004FF000600449086010BD0000001002401A
:100370000000FFF8FFFFF6FE08ED00E008201C4932
:1003800088611C48006840F480301A4908600846BB
:10039000006820F4802008601749481EB0F1807F73
:1003A00000D31BE0481E4FF0E022506150170F228F
:1003B000002804DB13071C0E104B1C5406E0130727
:1003C0001D0E0F4B00F00F04241F1D5500BF002011
:1003D0004FF0E02290610720106100BF4FF0E02055
:1003E000006920F004004FF0E021086100BFFEE743
:1003F00000100240040C0140C0C62D0000E400E0E3
:1004000018ED00E014040008000000206006000061
:0404100028010008B7
:040000050800016D81
:00000001FF
